{
  "contractName": "Auction",
  "abi": [
    {
      "inputs": [],
      "stateMutability": "nonpayable",
      "type": "constructor"
    },
    {
      "anonymous": false,
      "inputs": [
        {
          "indexed": true,
          "internalType": "address",
          "name": "_highestBidder",
          "type": "address"
        },
        {
          "indexed": false,
          "internalType": "uint256",
          "name": "_highestBid",
          "type": "uint256"
        }
      ],
      "name": "LogBid",
      "type": "event"
    },
    {
      "anonymous": false,
      "inputs": [
        {
          "indexed": true,
          "internalType": "address",
          "name": "_withdrawer",
          "type": "address"
        },
        {
          "indexed": false,
          "internalType": "uint256",
          "name": "amount",
          "type": "uint256"
        }
      ],
      "name": "LogWithdrawal",
      "type": "event"
    },
    {
      "inputs": [
        {
          "internalType": "address",
          "name": "",
          "type": "address"
        }
      ],
      "name": "bids",
      "outputs": [
        {
          "internalType": "uint256",
          "name": "",
          "type": "uint256"
        }
      ],
      "stateMutability": "view",
      "type": "function"
    },
    {
      "inputs": [],
      "name": "endTime",
      "outputs": [
        {
          "internalType": "uint256",
          "name": "",
          "type": "uint256"
        }
      ],
      "stateMutability": "view",
      "type": "function"
    },
    {
      "inputs": [],
      "name": "highestBid",
      "outputs": [
        {
          "internalType": "uint256",
          "name": "bidAmount",
          "type": "uint256"
        },
        {
          "internalType": "address",
          "name": "bidder",
          "type": "address"
        }
      ],
      "stateMutability": "view",
      "type": "function"
    },
    {
      "inputs": [],
      "name": "newHouse",
      "outputs": [
        {
          "internalType": "string",
          "name": "houseType",
          "type": "string"
        },
        {
          "internalType": "string",
          "name": "houseColor",
          "type": "string"
        },
        {
          "internalType": "string",
          "name": "houseLocation",
          "type": "string"
        }
      ],
      "stateMutability": "view",
      "type": "function"
    },
    {
      "inputs": [],
      "name": "startTime",
      "outputs": [
        {
          "internalType": "uint256",
          "name": "",
          "type": "uint256"
        }
      ],
      "stateMutability": "view",
      "type": "function"
    },
    {
      "inputs": [],
      "name": "makeBid",
      "outputs": [
        {
          "internalType": "bool",
          "name": "",
          "type": "bool"
        }
      ],
      "stateMutability": "payable",
      "type": "function"
    },
    {
      "inputs": [],
      "name": "withdraw",
      "outputs": [
        {
          "internalType": "bool",
          "name": "",
          "type": "bool"
        }
      ],
      "stateMutability": "nonpayable",
      "type": "function"
    },
    {
      "inputs": [],
      "name": "fetchHighestBid",
      "outputs": [
        {
          "components": [
            {
              "internalType": "uint256",
              "name": "bidAmount",
              "type": "uint256"
            },
            {
              "internalType": "address",
              "name": "bidder",
              "type": "address"
            }
          ],
          "internalType": "struct Auction.HighestBid",
          "name": "",
          "type": "tuple"
        }
      ],
      "stateMutability": "view",
      "type": "function"
    },
    {
      "inputs": [],
      "name": "getOwner",
      "outputs": [
        {
          "internalType": "address",
          "name": "",
          "type": "address"
        }
      ],
      "stateMutability": "view",
      "type": "function"
    }
  ],
  "bytecode": "0x60806040523480156200001157600080fd5b50336000806101000a81548173ffffffffffffffffffffffffffffffffffffffff021916908373ffffffffffffffffffffffffffffffffffffffff16021790555042600181905550610e104262000069919062000251565b6002819055506040518060400160405280600781526020017f236666666666660000000000000000000000000000000000000000000000000081525060046001019080519060200190620000bf92919062000168565b506040518060400160405280600881526020017f5361736b2c20534b000000000000000000000000000000000000000000000000815250600460020190805190602001906200011092919062000168565b506040518060400160405280600981526020017f546f776e686f7573650000000000000000000000000000000000000000000000815250600460000190805190602001906200016192919062000168565b5062000312565b8280546200017690620002dd565b90600052602060002090601f0160209004810192826200019a5760008555620001e6565b82601f10620001b557805160ff1916838001178555620001e6565b82800160010185558215620001e6579182015b82811115620001e5578251825591602001919060010190620001c8565b5b509050620001f59190620001f9565b5090565b5b8082111562000214576000816000905550600101620001fa565b5090565b6000819050919050565b7f4e487b7100000000000000000000000000000000000000000000000000000000600052601160045260246000fd5b60006200025e8262000218565b91506200026b8362000218565b9250827fffffffffffffffffffffffffffffffffffffffffffffffffffffffffffffffff03821115620002a357620002a262000222565b5b828201905092915050565b7f4e487b7100000000000000000000000000000000000000000000000000000000600052602260045260246000fd5b60006002820490506001821680620002f657607f821691505b6020821081036200030c576200030b620002ae565b5b50919050565b61108780620003226000396000f3fe6080604052600436106100865760003560e01c8063893d20e811610059578063893d20e814610149578063d57bde7914610174578063f30e3658146101a0578063f373c463146101be578063fa481f86146101e957610086565b80633197cbb61461008b5780633ccfd60b146100b657806362ea82db146100e157806378e979251461011e575b600080fd5b34801561009757600080fd5b506100a0610216565b6040516100ad9190610a1d565b60405180910390f35b3480156100c257600080fd5b506100cb61021c565b6040516100d89190610a53565b60405180910390f35b3480156100ed57600080fd5b5061010860048036038101906101039190610ad1565b6104d9565b6040516101159190610a1d565b60405180910390f35b34801561012a57600080fd5b506101336104f1565b6040516101409190610a1d565b60405180910390f35b34801561015557600080fd5b5061015e6104f7565b60405161016b9190610b0d565b60405180910390f35b34801561018057600080fd5b50610189610520565b604051610197929190610b28565b60405180910390f35b6101a8610552565b6040516101b59190610a53565b60405180910390f35b3480156101ca57600080fd5b506101d36107a4565b6040516101e09190610b9e565b60405180910390f35b3480156101f557600080fd5b506101fe610824565b60405161020d93929190610c52565b60405180910390f35b60025481565b6000600254421015610263576040517f08c379a000000000000000000000000000000000000000000000000000000000815260040161025a90610cea565b60405180910390fd5b60008054906101000a900473ffffffffffffffffffffffffffffffffffffffff1673ffffffffffffffffffffffffffffffffffffffff163373ffffffffffffffffffffffffffffffffffffffff16036102f1576040517f08c379a00000000000000000000000000000000000000000000000000000000081526004016102e890610d56565b60405180910390fd5b60006007600001549050600060036000600760010160009054906101000a900473ffffffffffffffffffffffffffffffffffffffff1673ffffffffffffffffffffffffffffffffffffffff1673ffffffffffffffffffffffffffffffffffffffff168152602001908152602001600020819055506000600760010160006101000a81548173ffffffffffffffffffffffffffffffffffffffff021916908373ffffffffffffffffffffffffffffffffffffffff160217905550600060076000018190555060008060009054906101000a900473ffffffffffffffffffffffffffffffffffffffff1673ffffffffffffffffffffffffffffffffffffffff16826040516103fc90610da7565b60006040518083038185875af1925050503d8060008114610439576040519150601f19603f3d011682016040523d82523d6000602084013e61043e565b606091505b5050905080610482576040517f08c379a000000000000000000000000000000000000000000000000000000000815260040161047990610e08565b60405180910390fd5b3373ffffffffffffffffffffffffffffffffffffffff167fb4214c8c54fc7442f36d3682f59aebaf09358a4431835b30efb29d52cf9e1e91836040516104c89190610a1d565b60405180910390a260019250505090565b60036020528060005260406000206000915090505481565b60015481565b60008060009054906101000a900473ffffffffffffffffffffffffffffffffffffffff16905090565b60078060000154908060010160009054906101000a900473ffffffffffffffffffffffffffffffffffffffff16905082565b60006002544210610598576040517f08c379a000000000000000000000000000000000000000000000000000000000815260040161058f90610e74565b60405180910390fd5b60008054906101000a900473ffffffffffffffffffffffffffffffffffffffff1673ffffffffffffffffffffffffffffffffffffffff163373ffffffffffffffffffffffffffffffffffffffff1603610626576040517f08c379a000000000000000000000000000000000000000000000000000000000815260040161061d90610ee0565b60405180910390fd5b600034600360003373ffffffffffffffffffffffffffffffffffffffff1673ffffffffffffffffffffffffffffffffffffffff168152602001908152602001600020546106739190610f2f565b905060076000015481116106bc576040517f08c379a00000000000000000000000000000000000000000000000000000000081526004016106b390610fd1565b60405180910390fd5b33600760010160006101000a81548173ffffffffffffffffffffffffffffffffffffffff021916908373ffffffffffffffffffffffffffffffffffffffff1602179055508060076000018190555080600360003373ffffffffffffffffffffffffffffffffffffffff1673ffffffffffffffffffffffffffffffffffffffff168152602001908152602001600020819055503373ffffffffffffffffffffffffffffffffffffffff167f5331b3a4532c2507900f549683f076c051f92222c177b52f82f140d8667d3ebf826040516107949190610a1d565b60405180910390a2600191505090565b6107ac6109d4565b60006007604051806040016040529081600082015481526020016001820160009054906101000a900473ffffffffffffffffffffffffffffffffffffffff1673ffffffffffffffffffffffffffffffffffffffff1673ffffffffffffffffffffffffffffffffffffffff168152505090508091505090565b600480600001805461083590611020565b80601f016020809104026020016040519081016040528092919081815260200182805461086190611020565b80156108ae5780601f10610883576101008083540402835291602001916108ae565b820191906000526020600020905b81548152906001019060200180831161089157829003601f168201915b5050505050908060010180546108c390611020565b80601f01602080910402602001604051908101604052809291908181526020018280546108ef90611020565b801561093c5780601f106109115761010080835404028352916020019161093c565b820191906000526020600020905b81548152906001019060200180831161091f57829003601f168201915b50505050509080600201805461095190611020565b80601f016020809104026020016040519081016040528092919081815260200182805461097d90611020565b80156109ca5780601f1061099f576101008083540402835291602001916109ca565b820191906000526020600020905b8154815290600101906020018083116109ad57829003601f168201915b5050505050905083565b604051806040016040528060008152602001600073ffffffffffffffffffffffffffffffffffffffff1681525090565b6000819050919050565b610a1781610a04565b82525050565b6000602082019050610a326000830184610a0e565b92915050565b60008115159050919050565b610a4d81610a38565b82525050565b6000602082019050610a686000830184610a44565b92915050565b600080fd5b600073ffffffffffffffffffffffffffffffffffffffff82169050919050565b6000610a9e82610a73565b9050919050565b610aae81610a93565b8114610ab957600080fd5b50565b600081359050610acb81610aa5565b92915050565b600060208284031215610ae757610ae6610a6e565b5b6000610af584828501610abc565b91505092915050565b610b0781610a93565b82525050565b6000602082019050610b226000830184610afe565b92915050565b6000604082019050610b3d6000830185610a0e565b610b4a6020830184610afe565b9392505050565b610b5a81610a04565b82525050565b610b6981610a93565b82525050565b604082016000820151610b856000850182610b51565b506020820151610b986020850182610b60565b50505050565b6000604082019050610bb36000830184610b6f565b92915050565b600081519050919050565b600082825260208201905092915050565b60005b83811015610bf3578082015181840152602081019050610bd8565b83811115610c02576000848401525b50505050565b6000601f19601f8301169050919050565b6000610c2482610bb9565b610c2e8185610bc4565b9350610c3e818560208601610bd5565b610c4781610c08565b840191505092915050565b60006060820190508181036000830152610c6c8186610c19565b90508181036020830152610c808185610c19565b90508181036040830152610c948184610c19565b9050949350505050565b7f546869732061756374696f6e206973207374696c6c206f70656e2e0000000000600082015250565b6000610cd4601b83610bc4565b9150610cdf82610c9e565b602082019050919050565b60006020820190508181036000830152610d0381610cc7565b9050919050565b7f4f6e6c79206f776e65722063616e20706572666f726d207461736b2e00000000600082015250565b6000610d40601c83610bc4565b9150610d4b82610d0a565b602082019050919050565b60006020820190508181036000830152610d6f81610d33565b9050919050565b600081905092915050565b50565b6000610d91600083610d76565b9150610d9c82610d81565b600082019050919050565b6000610db282610d84565b9150819050919050565b7f5769746864726177206661696c65642e00000000000000000000000000000000600082015250565b6000610df2601083610bc4565b9150610dfd82610dbc565b602082019050919050565b60006020820190508181036000830152610e2181610de5565b9050919050565b7f546869732061756374696f6e20697320636c6f7365642e000000000000000000600082015250565b6000610e5e601783610bc4565b9150610e6982610e28565b602082019050919050565b60006020820190508181036000830152610e8d81610e51565b9050919050565b7f4f776e6572206973206e6f7420616c6c6f77656420746f206269642e00000000600082015250565b6000610eca601c83610bc4565b9150610ed582610e94565b602082019050919050565b60006020820190508181036000830152610ef981610ebd565b9050919050565b7f4e487b7100000000000000000000000000000000000000000000000000000000600052601160045260246000fd5b6000610f3a82610a04565b9150610f4583610a04565b9250827fffffffffffffffffffffffffffffffffffffffffffffffffffffffffffffffff03821115610f7a57610f79610f00565b5b828201905092915050565b7f426964206572726f723a204d616b65206120686967686572204269642e000000600082015250565b6000610fbb601d83610bc4565b9150610fc682610f85565b602082019050919050565b60006020820190508181036000830152610fea81610fae565b9050919050565b7f4e487b7100000000000000000000000000000000000000000000000000000000600052602260045260246000fd5b6000600282049050600182168061103857607f821691505b60208210810361104b5761104a610ff1565b5b5091905056fea26469706673582212204eff382a192e3392dbfd80d270ea9eb0c3c28174d3a0c183cbc17ea0091c2fb164736f6c634300080d0033",
  "immutableReferences": {},
  "source": "pragma solidity 0.8.13;\r\n\r\ncontract Auction {\r\n    // Properties\r\n    address private owner;\r\n    uint256 public startTime;\r\n    uint256 public endTime;\r\n    mapping(address => uint256) public bids;\r\n\r\n    struct House {\r\n        string houseType;\r\n        string houseColor;\r\n        string houseLocation;\r\n    }\r\n\r\n    struct HighestBid {\r\n        uint256 bidAmount;\r\n        address bidder;\r\n    }\r\n\r\n    House public newHouse;\r\n    HighestBid public highestBid;\r\n\r\n    // Assign values to some properties during deployment\r\n    constructor () {\r\n        owner = msg.sender;\r\n        startTime = block.timestamp;\r\n        endTime = block.timestamp + 1 hours;\r\n        newHouse.houseColor = '#ffffff';\r\n        newHouse.houseLocation = 'Sask, SK';\r\n        newHouse.houseType = 'Townhouse';\r\n    }\r\n\r\n    function makeBid() public payable isOngoing() notOwner() returns (bool) {\r\n        uint256 bidAmount = bids[msg.sender] + msg.value;\r\n        require(bidAmount > highestBid.bidAmount, 'Bid error: Make a higher Bid.');\r\n\r\n        highestBid.bidder = msg.sender;\r\n        highestBid.bidAmount = bidAmount;\r\n        bids[msg.sender] = bidAmount;\r\n        emit LogBid(msg.sender, bidAmount);\r\n        return true;          \r\n    }\r\n\r\n    function withdraw() public notOngoing() isOwner() returns (bool) {\r\n        uint256 amount = highestBid.bidAmount;\r\n        bids[highestBid.bidder] = 0;\r\n        highestBid.bidder = address(0);\r\n        highestBid.bidAmount = 0;\r\n\r\n        (bool success, ) = payable(owner).call{ value: amount}(\"\");\r\n        require(success, 'Withdraw failed.');\r\n\r\n        emit LogWithdrawal(msg.sender, amount);\r\n        return true;\r\n    }\r\n\r\n    function fetchHighestBid() public view returns (HighestBid memory) {\r\n        HighestBid memory _highestBid = highestBid;\r\n        return _highestBid;\r\n    }\r\n\r\n    function getOwner() public view returns (address) {\r\n        return owner;\r\n    }\r\n\r\n    // Modifiers\r\n    modifier isOngoing() {\r\n        require(block.timestamp < endTime, 'This auction is closed.');\r\n        _;\r\n    }\r\n\r\n    modifier notOngoing() {\r\n        require(block.timestamp >= endTime, 'This auction is still open.');\r\n        _;\r\n    }\r\n\r\n    modifier isOwner() {\r\n        require(msg.sender != owner, 'Only owner can perform task.');\r\n        _;\r\n    }\r\n\r\n    modifier notOwner() {\r\n        require(msg.sender != owner, 'Owner is not allowed to bid.');\r\n        _;\r\n    }\r\n\r\n    // Events\r\n    event LogBid(address indexed _highestBidder, uint256 _highestBid);\r\n    event LogWithdrawal(address indexed _withdrawer, uint256 amount);\r\n}",
  "sourcePath": "D:\\GitHub\\FullStack_Github\\action-house\\contracts\\Auction.sol",
  "compiler": {
    "name": "solc",
    "version": "0.8.13+commit.abaa5c0e.Emscripten.clang"
  },
  "schemaVersion": "3.4.12",
  "updatedAt": "2023-02-22T14:08:23.604Z",
  "devdoc": {
    "kind": "dev",
    "methods": {},
    "version": 1
  },
  "userdoc": {
    "kind": "user",
    "methods": {},
    "version": 1
  }
}