{
  "contractName": "Todo",
  "abi": [
    {
      "inputs": [],
      "stateMutability": "nonpayable",
      "type": "constructor"
    },
    {
      "anonymous": false,
      "inputs": [
        {
          "indexed": true,
          "internalType": "address",
          "name": "_sender",
          "type": "address"
        },
        {
          "indexed": false,
          "internalType": "uint256",
          "name": "taskId",
          "type": "uint256"
        }
      ],
      "name": "LogAddItem",
      "type": "event"
    },
    {
      "anonymous": false,
      "inputs": [
        {
          "indexed": true,
          "internalType": "address",
          "name": "_sender",
          "type": "address"
        },
        {
          "indexed": false,
          "internalType": "uint256",
          "name": "taskId",
          "type": "uint256"
        }
      ],
      "name": "LogDeleteItem",
      "type": "event"
    },
    {
      "inputs": [
        {
          "internalType": "string",
          "name": "title",
          "type": "string"
        },
        {
          "internalType": "bool",
          "name": "checked",
          "type": "bool"
        }
      ],
      "name": "addItem",
      "outputs": [],
      "stateMutability": "nonpayable",
      "type": "function"
    },
    {
      "inputs": [],
      "name": "getMyTasks",
      "outputs": [
        {
          "components": [
            {
              "internalType": "uint256",
              "name": "id",
              "type": "uint256"
            },
            {
              "internalType": "string",
              "name": "title",
              "type": "string"
            },
            {
              "internalType": "bool",
              "name": "checked",
              "type": "bool"
            }
          ],
          "internalType": "struct Todo.Task[]",
          "name": "",
          "type": "tuple[]"
        }
      ],
      "stateMutability": "view",
      "type": "function"
    },
    {
      "inputs": [
        {
          "internalType": "uint256",
          "name": "taskId",
          "type": "uint256"
        }
      ],
      "name": "deleteTask",
      "outputs": [],
      "stateMutability": "nonpayable",
      "type": "function"
    }
  ],
  "bytecode": "0x608060405234801561001057600080fd5b50336000806101000a81548173ffffffffffffffffffffffffffffffffffffffff021916908373ffffffffffffffffffffffffffffffffffffffff160217905550610c18806100606000396000f3fe608060405234801561001057600080fd5b50600436106100415760003560e01c8063560f3192146100465780636e13f81814610062578063de66d53114610080575b600080fd5b610060600480360381019061005b91906106d1565b61009c565b005b61006a61018a565b60405161007791906108d3565b60405180910390f35b61009a60048036038101906100959190610a56565b610481565b005b3373ffffffffffffffffffffffffffffffffffffffff166002600083815260200190815260200160002060009054906101000a900473ffffffffffffffffffffffffffffffffffffffff1673ffffffffffffffffffffffffffffffffffffffff160361018757600015156001828154811061011a57610119610ab2565b5b906000526020600020906003020160020160009054906101000a905050503373ffffffffffffffffffffffffffffffffffffffff167fd419bb5d2c2c506960db61407b0d1c3f9a900c5179e3018fcc41931b8c6a6a0b8260405161017e9190610af0565b60405180910390a25b50565b6060600060018054905067ffffffffffffffff8111156101ad576101ac6108ff565b5b6040519080825280602002602001820160405280156101e657816020015b6101d36105c1565b8152602001906001900390816101cb5790505b5090506000805b6001805490508110156103c7573373ffffffffffffffffffffffffffffffffffffffff166002600083815260200190815260200160002060009054906101000a900473ffffffffffffffffffffffffffffffffffffffff1673ffffffffffffffffffffffffffffffffffffffff1614801561029e5750600015156001828154811061027b5761027a610ab2565b5b906000526020600020906003020160020160009054906101000a900460ff161515145b156103b457600181815481106102b7576102b6610ab2565b5b9060005260206000209060030201604051806060016040529081600082015481526020016001820180546102ea90610b3a565b80601f016020809104026020016040519081016040528092919081815260200182805461031690610b3a565b80156103635780601f1061033857610100808354040283529160200191610363565b820191906000526020600020905b81548152906001019060200180831161034657829003601f168201915b505050505081526020016002820160009054906101000a900460ff16151515158152505083838151811061039a57610399610ab2565b5b602002602001018190525081806103b090610b9a565b9250505b80806103bf90610b9a565b9150506101ed565b5060008167ffffffffffffffff8111156103e4576103e36108ff565b5b60405190808252806020026020018201604052801561041d57816020015b61040a6105c1565b8152602001906001900390816104025790505b50905060005b828110156104775783818151811061043e5761043d610ab2565b5b602002602001015182828151811061045957610458610ab2565b5b6020026020010181905250808061046f90610b9a565b915050610423565b5080935050505090565b600060018054905090506001604051806060016040528083815260200185815260200184151581525090806001815401808255809150506001900390600052602060002090600302016000909190919091506000820151816000015560208201518160010190805190602001906104f99291906105e4565b5060408201518160020160006101000a81548160ff0219169083151502179055505050336002600083815260200190815260200160002060006101000a81548173ffffffffffffffffffffffffffffffffffffffff021916908373ffffffffffffffffffffffffffffffffffffffff1602179055503373ffffffffffffffffffffffffffffffffffffffff167f3177057a77f4a8c3bcf5a047aa21bdea2ac2e0fefbbd9f597a952a6ba8cb9691826040516105b49190610af0565b60405180910390a2505050565b604051806060016040528060008152602001606081526020016000151581525090565b8280546105f090610b3a565b90600052602060002090601f0160209004810192826106125760008555610659565b82601f1061062b57805160ff1916838001178555610659565b82800160010185558215610659579182015b8281111561065857825182559160200191906001019061063d565b5b509050610666919061066a565b5090565b5b8082111561068357600081600090555060010161066b565b5090565b6000604051905090565b600080fd5b600080fd5b6000819050919050565b6106ae8161069b565b81146106b957600080fd5b50565b6000813590506106cb816106a5565b92915050565b6000602082840312156106e7576106e6610691565b5b60006106f5848285016106bc565b91505092915050565b600081519050919050565b600082825260208201905092915050565b6000819050602082019050919050565b6107338161069b565b82525050565b600081519050919050565b600082825260208201905092915050565b60005b83811015610773578082015181840152602081019050610758565b83811115610782576000848401525b50505050565b6000601f19601f8301169050919050565b60006107a482610739565b6107ae8185610744565b93506107be818560208601610755565b6107c781610788565b840191505092915050565b60008115159050919050565b6107e7816107d2565b82525050565b6000606083016000830151610805600086018261072a565b506020830151848203602086015261081d8282610799565b915050604083015161083260408601826107de565b508091505092915050565b600061084983836107ed565b905092915050565b6000602082019050919050565b6000610869826106fe565b6108738185610709565b9350836020820285016108858561071a565b8060005b858110156108c157848403895281516108a2858261083d565b94506108ad83610851565b925060208a01995050600181019050610889565b50829750879550505050505092915050565b600060208201905081810360008301526108ed818461085e565b905092915050565b600080fd5b600080fd5b7f4e487b7100000000000000000000000000000000000000000000000000000000600052604160045260246000fd5b61093782610788565b810181811067ffffffffffffffff82111715610956576109556108ff565b5b80604052505050565b6000610969610687565b9050610975828261092e565b919050565b600067ffffffffffffffff821115610995576109946108ff565b5b61099e82610788565b9050602081019050919050565b82818337600083830152505050565b60006109cd6109c88461097a565b61095f565b9050828152602081018484840111156109e9576109e86108fa565b5b6109f48482856109ab565b509392505050565b600082601f830112610a1157610a106108f5565b5b8135610a218482602086016109ba565b91505092915050565b610a33816107d2565b8114610a3e57600080fd5b50565b600081359050610a5081610a2a565b92915050565b60008060408385031215610a6d57610a6c610691565b5b600083013567ffffffffffffffff811115610a8b57610a8a610696565b5b610a97858286016109fc565b9250506020610aa885828601610a41565b9150509250929050565b7f4e487b7100000000000000000000000000000000000000000000000000000000600052603260045260246000fd5b610aea8161069b565b82525050565b6000602082019050610b056000830184610ae1565b92915050565b7f4e487b7100000000000000000000000000000000000000000000000000000000600052602260045260246000fd5b60006002820490506001821680610b5257607f821691505b602082108103610b6557610b64610b0b565b5b50919050565b7f4e487b7100000000000000000000000000000000000000000000000000000000600052601160045260246000fd5b6000610ba58261069b565b91507fffffffffffffffffffffffffffffffffffffffffffffffffffffffffffffffff8203610bd757610bd6610b6b565b5b60018201905091905056fea2646970667358221220e525eb0f85373d6a30ef5c24aeffbb97736a2056bc100afef9977edd234b10e064736f6c634300080d0033",
  "immutableReferences": {},
  "source": "pragma solidity 0.8.13;\r\n\r\ncontract Todo {\r\n    // Properties\r\n    address private owner;\r\n    Task[] private lists;\r\n\r\n    // Mapping\r\n    mapping(uint256 => address) taskToOwner;\r\n\r\n    // Event\r\n    event LogAddItem(address indexed _sender, uint taskId);\r\n    event LogDeleteItem(address indexed _sender, uint taskId);\r\n\r\n\r\n    struct Task {\r\n        uint id;\r\n        string title;\r\n        bool checked;\r\n    }\r\n\r\n    // Assign values\r\n    constructor () {\r\n        owner = msg.sender;\r\n    }\r\n\r\n    function addItem(string memory title, bool checked) external {\r\n        uint taskId = lists.length;\r\n        lists.push(Task(taskId, title, checked));\r\n        taskToOwner[taskId] = msg.sender;\r\n        emit LogAddItem(msg.sender, taskId);\r\n    }\r\n\r\n    function getMyTasks() external view returns (Task[] memory) {\r\n        Task[] memory temporary = new Task[](lists.length);\r\n        uint counter = 0;\r\n        for(uint i = 0; i < lists.length; i++)\r\n        {\r\n            if(taskToOwner[i] == msg.sender && lists[i].checked == false) {\r\n                temporary[counter] = lists[i];\r\n                counter++;\r\n            }\r\n        }\r\n\r\n        Task[] memory result = new Task[](counter);\r\n\r\n        for(uint i=0; i<counter; i++) {\r\n            result[i] = temporary[i];\r\n        }\r\n        return result;\r\n    }\r\n\r\n    function deleteTask(uint taskId) external {\r\n\r\n        if(taskToOwner[taskId] == msg.sender)\r\n        {\r\n            lists[taskId].checked == false;\r\n            emit LogDeleteItem(msg.sender, taskId);\r\n        }\r\n    }\r\n}",
  "sourcePath": "D:\\GitHub\\FullStack_Github\\Auction\\contracts\\Todo.sol",
  "compiler": {
    "name": "solc",
    "version": "0.8.13+commit.abaa5c0e.Emscripten.clang"
  },
  "schemaVersion": "3.4.12",
  "updatedAt": "2023-02-23T05:52:47.193Z",
  "devdoc": {
    "kind": "dev",
    "methods": {},
    "version": 1
  },
  "userdoc": {
    "kind": "user",
    "methods": {},
    "version": 1
  }
}